{
  "_format": "hh-sol-artifact-1",
  "contractName": "Bank",
  "sourceName": "contracts/Bank.sol",
  "abi": [
    {
      "inputs": [],
      "stateMutability": "nonpayable",
      "type": "constructor"
    },
    {
      "inputs": [
        {
          "internalType": "address",
          "name": "",
          "type": "address"
        },
        {
          "internalType": "bytes32",
          "name": "",
          "type": "bytes32"
        }
      ],
      "name": "balances",
      "outputs": [
        {
          "internalType": "uint256",
          "name": "",
          "type": "uint256"
        }
      ],
      "stateMutability": "view",
      "type": "function"
    },
    {
      "inputs": [
        {
          "internalType": "uint256",
          "name": "amount",
          "type": "uint256"
        },
        {
          "internalType": "bytes32",
          "name": "symbol",
          "type": "bytes32"
        }
      ],
      "name": "depositTokens",
      "outputs": [],
      "stateMutability": "nonpayable",
      "type": "function"
    },
    {
      "inputs": [
        {
          "internalType": "bytes32",
          "name": "symbol",
          "type": "bytes32"
        }
      ],
      "name": "getTokenBalance",
      "outputs": [
        {
          "internalType": "uint256",
          "name": "",
          "type": "uint256"
        }
      ],
      "stateMutability": "view",
      "type": "function"
    },
    {
      "inputs": [],
      "name": "getWhiteListedSymbols",
      "outputs": [
        {
          "internalType": "bytes32[]",
          "name": "",
          "type": "bytes32[]"
        }
      ],
      "stateMutability": "view",
      "type": "function"
    },
    {
      "inputs": [
        {
          "internalType": "bytes32",
          "name": "symbol",
          "type": "bytes32"
        }
      ],
      "name": "getWhiteListedTokensAddress",
      "outputs": [
        {
          "internalType": "address",
          "name": "",
          "type": "address"
        }
      ],
      "stateMutability": "view",
      "type": "function"
    },
    {
      "inputs": [
        {
          "internalType": "bytes32",
          "name": "symbol",
          "type": "bytes32"
        },
        {
          "internalType": "address",
          "name": "tokenAddress",
          "type": "address"
        }
      ],
      "name": "whiteListToken",
      "outputs": [],
      "stateMutability": "nonpayable",
      "type": "function"
    },
    {
      "inputs": [
        {
          "internalType": "uint256",
          "name": "",
          "type": "uint256"
        }
      ],
      "name": "whiteListedSymbols",
      "outputs": [
        {
          "internalType": "bytes32",
          "name": "",
          "type": "bytes32"
        }
      ],
      "stateMutability": "view",
      "type": "function"
    },
    {
      "inputs": [
        {
          "internalType": "bytes32",
          "name": "",
          "type": "bytes32"
        }
      ],
      "name": "whiteListedTokens",
      "outputs": [
        {
          "internalType": "address",
          "name": "",
          "type": "address"
        }
      ],
      "stateMutability": "view",
      "type": "function"
    },
    {
      "inputs": [
        {
          "internalType": "uint256",
          "name": "amount",
          "type": "uint256"
        }
      ],
      "name": "withdrawEther",
      "outputs": [],
      "stateMutability": "nonpayable",
      "type": "function"
    },
    {
      "inputs": [
        {
          "internalType": "uint256",
          "name": "amount",
          "type": "uint256"
        },
        {
          "internalType": "bytes32",
          "name": "symbol",
          "type": "bytes32"
        }
      ],
      "name": "withdrawTokens",
      "outputs": [],
      "stateMutability": "nonpayable",
      "type": "function"
    },
    {
      "stateMutability": "payable",
      "type": "receive"
    }
  ],
  "bytecode": "0x608060405234801561001057600080fd5b50336000806101000a81548173ffffffffffffffffffffffffffffffffffffffff021916908373ffffffffffffffffffffffffffffffffffffffff160217905550610fae806100606000396000f3fe6080604052600436106100955760003560e01c80638930e0fe116100595780638930e0fe146102335780638f97994b14610270578063ae78ba8614610299578063cecf8013146102c2578063d15b223e146102ff57610123565b80631f14df69146101285780633bed33ce14610165578063402a4bdf1461018e57806378a3036f146101b957806388db6ac6146101f657610123565b366101235734600360003373ffffffffffffffffffffffffffffffffffffffff1673ffffffffffffffffffffffffffffffffffffffff16815260200190815260200160002060007f45746800000000000000000000000000000000000000000000000000000000008152602001908152602001600020600082825461011a9190610a03565b92505081905550005b600080fd5b34801561013457600080fd5b5061014f600480360381019061014a9190610af2565b610328565b60405161015c9190610b41565b60405180910390f35b34801561017157600080fd5b5061018c60048036038101906101879190610b88565b61034d565b005b34801561019a57600080fd5b506101a361048a565b6040516101b09190610c73565b60405180910390f35b3480156101c557600080fd5b506101e060048036038101906101db9190610b88565b6104e2565b6040516101ed9190610ca4565b60405180910390f35b34801561020257600080fd5b5061021d60048036038101906102189190610cbf565b610506565b60405161022a9190610b41565b60405180910390f35b34801561023f57600080fd5b5061025a60048036038101906102559190610cbf565b610560565b6040516102679190610cfb565b60405180910390f35b34801561027c57600080fd5b5061029760048036038101906102929190610d16565b610593565b005b3480156102a557600080fd5b506102c060048036038101906102bb9190610d56565b610752565b005b3480156102ce57600080fd5b506102e960048036038101906102e49190610cbf565b61085f565b6040516102f69190610cfb565b60405180910390f35b34801561030b57600080fd5b5061032660048036038101906103219190610d16565b61089c565b005b6003602052816000526040600020602052806000526040600020600091509150505481565b80600360003373ffffffffffffffffffffffffffffffffffffffff1673ffffffffffffffffffffffffffffffffffffffff16815260200190815260200160002060007f45746800000000000000000000000000000000000000000000000000000000008152602001908152602001600020541015610400576040517f08c379a00000000000000000000000000000000000000000000000000000000081526004016103f790610df3565b60405180910390fd5b80600360003373ffffffffffffffffffffffffffffffffffffffff1673ffffffffffffffffffffffffffffffffffffffff16815260200190815260200160002060007f4574680000000000000000000000000000000000000000000000000000000000815260200190815260200160002060008282546104809190610e13565b9250508190555050565b606060018054806020026020016040519081016040528092919081815260200182805480156104d857602002820191906000526020600020905b8154815260200190600101908083116104c4575b5050505050905090565b600181815481106104f257600080fd5b906000526020600020016000915090505481565b6000600360003373ffffffffffffffffffffffffffffffffffffffff1673ffffffffffffffffffffffffffffffffffffffff1681526020019081526020016000206000838152602001908152602001600020549050919050565b60026020528060005260406000206000915054906101000a900473ffffffffffffffffffffffffffffffffffffffff1681565b81600360003373ffffffffffffffffffffffffffffffffffffffff1673ffffffffffffffffffffffffffffffffffffffff1681526020019081526020016000206000838152602001908152602001600020541015610626576040517f08c379a000000000000000000000000000000000000000000000000000000000815260040161061d90610df3565b60405180910390fd5b81600360003373ffffffffffffffffffffffffffffffffffffffff1673ffffffffffffffffffffffffffffffffffffffff168152602001908152602001600020600083815260200190815260200160002060008282546106869190610a03565b925050819055506002600082815260200190815260200160002060009054906101000a900473ffffffffffffffffffffffffffffffffffffffff1673ffffffffffffffffffffffffffffffffffffffff1663a9059cbb33846040518363ffffffff1660e01b81526004016106fb929190610e47565b602060405180830381600087803b15801561071557600080fd5b505af1158015610729573d6000803e3d6000fd5b505050506040513d601f19601f8201168201806040525081019061074d9190610ea8565b505050565b60008054906101000a900473ffffffffffffffffffffffffffffffffffffffff1673ffffffffffffffffffffffffffffffffffffffff163373ffffffffffffffffffffffffffffffffffffffff16146107e0576040517f08c379a00000000000000000000000000000000000000000000000000000000081526004016107d790610f21565b60405180910390fd5b6001829080600181540180825580915050600190039060005260206000200160009091909190915055806002600084815260200190815260200160002060006101000a81548173ffffffffffffffffffffffffffffffffffffffff021916908373ffffffffffffffffffffffffffffffffffffffff1602179055505050565b60006002600083815260200190815260200160002060009054906101000a900473ffffffffffffffffffffffffffffffffffffffff169050919050565b81600360003373ffffffffffffffffffffffffffffffffffffffff1673ffffffffffffffffffffffffffffffffffffffff168152602001908152602001600020600083815260200190815260200160002060008282546108fc9190610a03565b925050819055506002600082815260200190815260200160002060009054906101000a900473ffffffffffffffffffffffffffffffffffffffff1673ffffffffffffffffffffffffffffffffffffffff166323b872dd3330856040518463ffffffff1660e01b815260040161097393929190610f41565b602060405180830381600087803b15801561098d57600080fd5b505af11580156109a1573d6000803e3d6000fd5b505050506040513d601f19601f820116820180604052508101906109c59190610ea8565b505050565b6000819050919050565b7f4e487b7100000000000000000000000000000000000000000000000000000000600052601160045260246000fd5b6000610a0e826109ca565b9150610a19836109ca565b9250827fffffffffffffffffffffffffffffffffffffffffffffffffffffffffffffffff03821115610a4e57610a4d6109d4565b5b828201905092915050565b600080fd5b600073ffffffffffffffffffffffffffffffffffffffff82169050919050565b6000610a8982610a5e565b9050919050565b610a9981610a7e565b8114610aa457600080fd5b50565b600081359050610ab681610a90565b92915050565b6000819050919050565b610acf81610abc565b8114610ada57600080fd5b50565b600081359050610aec81610ac6565b92915050565b60008060408385031215610b0957610b08610a59565b5b6000610b1785828601610aa7565b9250506020610b2885828601610add565b9150509250929050565b610b3b816109ca565b82525050565b6000602082019050610b566000830184610b32565b92915050565b610b65816109ca565b8114610b7057600080fd5b50565b600081359050610b8281610b5c565b92915050565b600060208284031215610b9e57610b9d610a59565b5b6000610bac84828501610b73565b91505092915050565b600081519050919050565b600082825260208201905092915050565b6000819050602082019050919050565b610bea81610abc565b82525050565b6000610bfc8383610be1565b60208301905092915050565b6000602082019050919050565b6000610c2082610bb5565b610c2a8185610bc0565b9350610c3583610bd1565b8060005b83811015610c66578151610c4d8882610bf0565b9750610c5883610c08565b925050600181019050610c39565b5085935050505092915050565b60006020820190508181036000830152610c8d8184610c15565b905092915050565b610c9e81610abc565b82525050565b6000602082019050610cb96000830184610c95565b92915050565b600060208284031215610cd557610cd4610a59565b5b6000610ce384828501610add565b91505092915050565b610cf581610a7e565b82525050565b6000602082019050610d106000830184610cec565b92915050565b60008060408385031215610d2d57610d2c610a59565b5b6000610d3b85828601610b73565b9250506020610d4c85828601610add565b9150509250929050565b60008060408385031215610d6d57610d6c610a59565b5b6000610d7b85828601610add565b9250506020610d8c85828601610aa7565b9150509250929050565b600082825260208201905092915050565b7f496e73756666696369656e742046756e64730000000000000000000000000000600082015250565b6000610ddd601283610d96565b9150610de882610da7565b602082019050919050565b60006020820190508181036000830152610e0c81610dd0565b9050919050565b6000610e1e826109ca565b9150610e29836109ca565b925082821015610e3c57610e3b6109d4565b5b828203905092915050565b6000604082019050610e5c6000830185610cec565b610e696020830184610b32565b9392505050565b60008115159050919050565b610e8581610e70565b8114610e9057600080fd5b50565b600081519050610ea281610e7c565b92915050565b600060208284031215610ebe57610ebd610a59565b5b6000610ecc84828501610e93565b91505092915050565b7f546869732066756e6374696f6e206973206e6f74205075626c69630000000000600082015250565b6000610f0b601b83610d96565b9150610f1682610ed5565b602082019050919050565b60006020820190508181036000830152610f3a81610efe565b9050919050565b6000606082019050610f566000830186610cec565b610f636020830185610cec565b610f706040830184610b32565b94935050505056fea264697066735822122024696a8056098718d4b3d2fdf56db7d109726c868bfbde88b05a7474cf65c4c464736f6c63430008090033",
  "linkReferences": {},
  "deployedLinkReferences": {}
}